{
  "contractName": "EmploymentRegistry",
  "abi": [
    {
      "anonymous": false,
      "inputs": [
        {
          "indexed": true,
          "internalType": "address",
          "name": "employeeAddress",
          "type": "address"
        },
        {
          "indexed": false,
          "internalType": "string",
          "name": "employeeName",
          "type": "string"
        },
        {
          "indexed": false,
          "internalType": "uint256",
          "name": "startDate",
          "type": "uint256"
        },
        {
          "indexed": false,
          "internalType": "string",
          "name": "jobDescription",
          "type": "string"
        },
        {
          "indexed": false,
          "internalType": "uint256",
          "name": "salary",
          "type": "uint256"
        },
        {
          "indexed": false,
          "internalType": "uint256",
          "name": "hoursWorked",
          "type": "uint256"
        }
      ],
      "name": "EmploymentUpdated",
      "type": "event"
    },
    {
      "inputs": [
        {
          "internalType": "address",
          "name": "",
          "type": "address"
        }
      ],
      "name": "employments",
      "outputs": [
        {
          "internalType": "string",
          "name": "employeeName",
          "type": "string"
        },
        {
          "internalType": "uint256",
          "name": "startDate",
          "type": "uint256"
        },
        {
          "internalType": "string",
          "name": "jobDescription",
          "type": "string"
        },
        {
          "internalType": "uint256",
          "name": "salary",
          "type": "uint256"
        },
        {
          "internalType": "uint256",
          "name": "hoursWorked",
          "type": "uint256"
        }
      ],
      "stateMutability": "view",
      "type": "function",
      "constant": true
    },
    {
      "inputs": [
        {
          "internalType": "string",
          "name": "_employeeName",
          "type": "string"
        },
        {
          "internalType": "uint256",
          "name": "_startDate",
          "type": "uint256"
        },
        {
          "internalType": "string",
          "name": "_jobDescription",
          "type": "string"
        },
        {
          "internalType": "uint256",
          "name": "_salary",
          "type": "uint256"
        },
        {
          "internalType": "uint256",
          "name": "_hoursWorked",
          "type": "uint256"
        }
      ],
      "name": "updateEmployment",
      "outputs": [],
      "stateMutability": "nonpayable",
      "type": "function"
    },
    {
      "inputs": [
        {
          "internalType": "address",
          "name": "_employeeAddress",
          "type": "address"
        }
      ],
      "name": "getEmployment",
      "outputs": [
        {
          "internalType": "string",
          "name": "employeeName",
          "type": "string"
        },
        {
          "internalType": "uint256",
          "name": "startDate",
          "type": "uint256"
        },
        {
          "internalType": "string",
          "name": "jobDescription",
          "type": "string"
        },
        {
          "internalType": "uint256",
          "name": "salary",
          "type": "uint256"
        },
        {
          "internalType": "uint256",
          "name": "hoursWorked",
          "type": "uint256"
        }
      ],
      "stateMutability": "view",
      "type": "function",
      "constant": true
    }
  ],
  "bytecode": "0x608060405234801561000f575f80fd5b50610b348061001d5f395ff3fe608060405234801561000f575f80fd5b506004361061003f575f3560e01c80630a8cedbd14610043578063ebd0f34114610077578063fb74334914610093575b5f80fd5b61005d60048036038101906100589190610504565b6100c7565b60405161006e9594939291906105d1565b60405180910390f35b610091600480360381019061008c9190610786565b610204565b005b6100ad60048036038101906100a89190610504565b6102df565b6040516100be9594939291906105d1565b60405180910390f35b5f602052805f5260405f205f91509050805f0180546100e590610862565b80601f016020809104026020016040519081016040528092919081815260200182805461011190610862565b801561015c5780601f106101335761010080835404028352916020019161015c565b820191905f5260205f20905b81548152906001019060200180831161013f57829003601f168201915b50505050509080600101549080600201805461017790610862565b80601f01602080910402602001604051908101604052809291908181526020018280546101a390610862565b80156101ee5780601f106101c5576101008083540402835291602001916101ee565b820191905f5260205f20905b8154815290600101906020018083116101d157829003601f168201915b5050505050908060030154908060040154905085565b5f805f3373ffffffffffffffffffffffffffffffffffffffff1673ffffffffffffffffffffffffffffffffffffffff1681526020019081526020015f20905085815f0190816102539190610a2f565b508481600101819055508381600201908161026e9190610a2f565b508281600301819055508181600401819055503373ffffffffffffffffffffffffffffffffffffffff167f909eef74d357b05db62157b2568884da134b3fdb8dff74f994979d49198f49fb87878787876040516102cf9594939291906105d1565b60405180910390a2505050505050565b60605f60605f805f805f8873ffffffffffffffffffffffffffffffffffffffff1673ffffffffffffffffffffffffffffffffffffffff1681526020019081526020015f206040518060a00160405290815f8201805461033d90610862565b80601f016020809104026020016040519081016040528092919081815260200182805461036990610862565b80156103b45780601f1061038b576101008083540402835291602001916103b4565b820191905f5260205f20905b81548152906001019060200180831161039757829003601f168201915b50505050508152602001600182015481526020016002820180546103d790610862565b80601f016020809104026020016040519081016040528092919081815260200182805461040390610862565b801561044e5780601f106104255761010080835404028352916020019161044e565b820191905f5260205f20905b81548152906001019060200180831161043157829003601f168201915b50505050508152602001600382015481526020016004820154815250509050805f01518160200151826040015183606001518460800151955095509550955095505091939590929450565b5f604051905090565b5f80fd5b5f80fd5b5f73ffffffffffffffffffffffffffffffffffffffff82169050919050565b5f6104d3826104aa565b9050919050565b6104e3816104c9565b81146104ed575f80fd5b50565b5f813590506104fe816104da565b92915050565b5f60208284031215610519576105186104a2565b5b5f610526848285016104f0565b91505092915050565b5f81519050919050565b5f82825260208201905092915050565b5f5b8381101561056657808201518184015260208101905061054b565b5f8484015250505050565b5f601f19601f8301169050919050565b5f61058b8261052f565b6105958185610539565b93506105a5818560208601610549565b6105ae81610571565b840191505092915050565b5f819050919050565b6105cb816105b9565b82525050565b5f60a0820190508181035f8301526105e98188610581565b90506105f860208301876105c2565b818103604083015261060a8186610581565b905061061960608301856105c2565b61062660808301846105c2565b9695505050505050565b5f80fd5b5f80fd5b7f4e487b71000000000000000000000000000000000000000000000000000000005f52604160045260245ffd5b61066e82610571565b810181811067ffffffffffffffff8211171561068d5761068c610638565b5b80604052505050565b5f61069f610499565b90506106ab8282610665565b919050565b5f67ffffffffffffffff8211156106ca576106c9610638565b5b6106d382610571565b9050602081019050919050565b828183375f83830152505050565b5f6107006106fb846106b0565b610696565b90508281526020810184848401111561071c5761071b610634565b5b6107278482856106e0565b509392505050565b5f82601f83011261074357610742610630565b5b81356107538482602086016106ee565b91505092915050565b610765816105b9565b811461076f575f80fd5b50565b5f813590506107808161075c565b92915050565b5f805f805f60a0868803121561079f5761079e6104a2565b5b5f86013567ffffffffffffffff8111156107bc576107bb6104a6565b5b6107c88882890161072f565b95505060206107d988828901610772565b945050604086013567ffffffffffffffff8111156107fa576107f96104a6565b5b6108068882890161072f565b935050606061081788828901610772565b925050608061082888828901610772565b9150509295509295909350565b7f4e487b71000000000000000000000000000000000000000000000000000000005f52602260045260245ffd5b5f600282049050600182168061087957607f821691505b60208210810361088c5761088b610835565b5b50919050565b5f819050815f5260205f209050919050565b5f6020601f8301049050919050565b5f82821b905092915050565b5f600883026108ee7fffffffffffffffffffffffffffffffffffffffffffffffffffffffffffffffff826108b3565b6108f886836108b3565b95508019841693508086168417925050509392505050565b5f819050919050565b5f61093361092e610929846105b9565b610910565b6105b9565b9050919050565b5f819050919050565b61094c83610919565b6109606109588261093a565b8484546108bf565b825550505050565b5f90565b610974610968565b61097f818484610943565b505050565b5b818110156109a2576109975f8261096c565b600181019050610985565b5050565b601f8211156109e7576109b881610892565b6109c1846108a4565b810160208510156109d0578190505b6109e46109dc856108a4565b830182610984565b50505b505050565b5f82821c905092915050565b5f610a075f19846008026109ec565b1980831691505092915050565b5f610a1f83836109f8565b9150826002028217905092915050565b610a388261052f565b67ffffffffffffffff811115610a5157610a50610638565b5b610a5b8254610862565b610a668282856109a6565b5f60209050601f831160018114610a97575f8415610a85578287015190505b610a8f8582610a14565b865550610af6565b601f198416610aa586610892565b5f5b82811015610acc57848901518255600182019150602085019450602081019050610aa7565b86831015610ae95784890151610ae5601f8916826109f8565b8355505b6001600288020188555050505b50505050505056fea26469706673582212204dfb2dd5bffaf99272a764fa8da0646e70c35ed449b9afa05ba65222bd09962164736f6c63430008140033",
  "immutableReferences": {},
  "source": "// SPDX-License-Identifier: MIT\r\npragma solidity ^0.8.0;\r\n\r\nimport \"@openzeppelin/contracts/token/ERC20/ERC20.sol\";\r\n\r\ncontract EmploymentRegistry {\r\n    struct Employment {\r\n        string employeeName;\r\n        uint256 startDate;\r\n        string jobDescription;\r\n        uint256 salary;\r\n        uint256 hoursWorked;\r\n    }\r\n\r\n    mapping(address => Employment) public employments;\r\n\r\n    // Event to log employment updates\r\n    event EmploymentUpdated(\r\n        address indexed employeeAddress,\r\n        string employeeName,\r\n        uint256 startDate,\r\n        string jobDescription,\r\n        uint256 salary,\r\n        uint256 hoursWorked\r\n    );\r\n\r\n    // Function to update employment details\r\n    function updateEmployment(\r\n        string memory _employeeName,\r\n        uint256 _startDate,\r\n        string memory _jobDescription,\r\n        uint256 _salary,\r\n        uint256 _hoursWorked\r\n    ) public {\r\n        Employment storage employment = employments[msg.sender];\r\n        employment.employeeName = _employeeName;\r\n        employment.startDate = _startDate;\r\n        employment.jobDescription = _jobDescription;\r\n        employment.salary = _salary;\r\n        employment.hoursWorked = _hoursWorked;\r\n        emit EmploymentUpdated(\r\n            msg.sender,\r\n            _employeeName,\r\n            _startDate,\r\n            _jobDescription,\r\n            _salary,\r\n            _hoursWorked\r\n        );\r\n    }\r\n\r\n    // Function to get employment details\r\n    function getEmployment(address _employeeAddress)\r\n        public\r\n        view\r\n        returns (\r\n            string memory employeeName,\r\n            uint256 startDate,\r\n            string memory jobDescription,\r\n            uint256 salary,\r\n            uint256 hoursWorked\r\n        )\r\n    {\r\n        Employment memory employment = employments[_employeeAddress];\r\n        return (\r\n            employment.employeeName,\r\n            employment.startDate,\r\n            employment.jobDescription,\r\n            employment.salary,\r\n            employment.hoursWorked\r\n        );\r\n    }\r\n}\r\n",
  "sourcePath": "C:\\Users\\ferna\\Documents\\decentralzadaControlVersiones\\intento1\\intento1\\contracts\\EmploymentRegistry.sol",
  "compiler": {
    "name": "solc",
    "version": "0.8.20+commit.a1b79de6.Emscripten.clang"
  },
  "schemaVersion": "3.4.16",
  "updatedAt": "2024-06-10T02:55:42.371Z",
  "networkType": "ethereum",
  "devdoc": {
    "kind": "dev",
    "methods": {},
    "version": 1
  },
  "userdoc": {
    "kind": "user",
    "methods": {},
    "version": 1
  }
}